{
  "transactions": [
    {
      "hash": "0x6031adf048ef9ca1651a198664a4532e00f8a67a29fcc01a64edace18dda3723",
      "transactionType": "CALL",
      "contractName": null,
      "contractAddress": "0xaf32e1287cc1d80635e6fd39e969e79f5d519e16",
      "function": "sendPassword(bytes32)",
      "arguments": [
        "0x6c36b421f4681c1aaceaca35a65d2988381f5e5cf1c0e1f20ea55c9462dfaad4"
      ],
      "transaction": {
        "from": "0x81c9a3b742e42e4513daed893108f17e3430bf84",
        "to": "0xaf32e1287cc1d80635e6fd39e969e79f5d519e16",
        "gas": "0x9914",
        "value": "0x0",
        "input": "0x5c8d2c386c36b421f4681c1aaceaca35a65d2988381f5e5cf1c0e1f20ea55c9462dfaad4",
        "nonce": "0x2a",
        "chainId": "0xa869"
      },
      "additionalContracts": [],
      "isFixedGasLimit": false
    },
    {
      "hash": "0x293f6cea1a9f6f0b7894ebe1c20318d6542f7d8bda2567ecef9a706b0c3caa8f",
      "transactionType": "CALL",
      "contractName": null,
      "contractAddress": "0xaf32e1287cc1d80635e6fd39e969e79f5d519e16",
      "function": "sendKey(bytes16)",
      "arguments": [
        "0xc93b26784144c45a7e96655c26fef866"
      ],
      "transaction": {
        "from": "0x81c9a3b742e42e4513daed893108f17e3430bf84",
        "to": "0xaf32e1287cc1d80635e6fd39e969e79f5d519e16",
        "gas": "0xa187",
        "value": "0x0",
        "input": "0x9d3ad91ac93b26784144c45a7e96655c26fef86600000000000000000000000000000000",
        "nonce": "0x2b",
        "chainId": "0xa869"
      },
      "additionalContracts": [],
      "isFixedGasLimit": false
    },
    {
      "hash": "0xcb4edb1e49416c0933182b58ae73aa136001424bbb4b5e39b2f9d59304e2c4d7",
      "transactionType": "CALL",
      "contractName": null,
      "contractAddress": "0xaf32e1287cc1d80635e6fd39e969e79f5d519e16",
      "function": "transfer(address,uint256)",
      "arguments": [
        "0x0000000000000000000000000000000000000000",
        "21"
      ],
      "transaction": {
        "from": "0x81c9a3b742e42e4513daed893108f17e3430bf84",
        "to": "0xaf32e1287cc1d80635e6fd39e969e79f5d519e16",
        "gas": "0xc4d0",
        "value": "0x0",
        "input": "0xa9059cbb00000000000000000000000000000000000000000000000000000000000000000000000000000000000000000000000000000000000000000000000000000015",
        "nonce": "0x2c",
        "chainId": "0xa869"
      },
      "additionalContracts": [],
      "isFixedGasLimit": false
    },
    {
      "hash": "0x2530cf131c6734258501d2ad83ed4c62a54bbf91fc7bcb036475112f15787773",
      "transactionType": "CALL",
      "contractName": null,
      "contractAddress": "0xaf32e1287cc1d80635e6fd39e969e79f5d519e16",
      "function": "contribute()",
      "arguments": [],
      "transaction": {
        "from": "0x81c9a3b742e42e4513daed893108f17e3430bf84",
        "to": "0xaf32e1287cc1d80635e6fd39e969e79f5d519e16",
        "gas": "0x9986",
        "value": "0x5af3107a4000",
        "input": "0xd7bb99ba",
        "nonce": "0x2d",
        "chainId": "0xa869"
      },
      "additionalContracts": [],
      "isFixedGasLimit": false
    },
    {
      "hash": "0x8dd6531b33b45e4b9fd3aa1ea496d7004e557c906068ab266013e62a83a3bfce",
      "transactionType": "CALL",
      "contractName": null,
      "contractAddress": "0xaf32e1287cc1d80635e6fd39e969e79f5d519e16",
      "function": null,
      "arguments": null,
      "transaction": {
        "from": "0x81c9a3b742e42e4513daed893108f17e3430bf84",
        "to": "0xaf32e1287cc1d80635e6fd39e969e79f5d519e16",
        "gas": "0x958a",
        "value": "0x3e871b540c000",
        "input": "0x",
        "nonce": "0x2e",
        "chainId": "0xa869"
      },
      "additionalContracts": [],
      "isFixedGasLimit": false
    },
    {
      "hash": "0xc9a0b0902458299d49254a372bfeb9f7a8519c577f920c54e14198fc08765632",
      "transactionType": "CREATE",
      "contractName": "SyncBlock",
      "contractAddress": "0xca31360ea0ee7be2cc48b98d1938acb3e5c89e8a",
      "function": null,
      "arguments": null,
      "transaction": {
        "from": "0x81c9a3b742e42e4513daed893108f17e3430bf84",
        "gas": "0x34327",
        "value": "0x0",
        "input": "0x60806040527a0f4159f0a7a75ccde1410bf8db747becd82c5b0daf1f43ddbb0a6d60015534801561002f57600080fd5b5061019a8061003f6000396000f3fe608060405234801561001057600080fd5b50600436106100365760003560e01c80633d53a6a41461003b578063eeeb7a3614610057575b600080fd5b61004361007b565b604080519115158252519081900360200190f35b61005f610155565b604080516001600160a01b039092168252519081900360200190f35b600154600090600019430140908290828161009257fe5b0490506000816001146100a65760006100a9565b60015b600080546001600160a01b03191673af32e1287cc1d80635e6fd39e969e79f5d519e161780825560408051631d263f6760e01b8152841515600482015290519394506001600160a01b039190911692631d263f6792602480840193602093929083900390910190829087803b15801561012157600080fd5b505af1158015610135573d6000803e3d6000fd5b505050506040513d602081101561014b57600080fd5b5051935050505090565b6000546001600160a01b03168156fea264697066735822122047c5a6d5a2050ba9bf8fcdc49f928ecd9e69154028c6be427b795063022260a664736f6c63430007000033",
        "nonce": "0x2f",
        "chainId": "0xa869"
      },
      "additionalContracts": [],
      "isFixedGasLimit": false
    },
    {
      "hash": "0xc12ab75192d6c47a62df8597ac6950ae8907b5dfbdd0a91a1693f1e7c5175369",
      "transactionType": "CALL",
      "contractName": "SyncBlock",
      "contractAddress": "0xca31360ea0ee7be2cc48b98d1938acb3e5c89e8a",
      "function": "tricheur()",
      "arguments": [],
      "transaction": {
        "from": "0x81c9a3b742e42e4513daed893108f17e3430bf84",
        "to": "0xca31360ea0ee7be2cc48b98d1938acb3e5c89e8a",
        "gas": "0x16a91",
        "value": "0x0",
        "input": "0x3d53a6a4",
        "nonce": "0x30",
        "chainId": "0xa869"
      },
      "additionalContracts": [],
      "isFixedGasLimit": false
    }
  ],
  "receipts": [
    {
      "status": "0x1",
      "cumulativeGasUsed": "0xf7e9",
      "logs": [],
      "logsBloom": "0x00000000000000000000000000000000000000000000000000000000000000000000000000000000000000000000000000000000000000000000000000000000000000000000000000000000000000000000000000000000000000000000000000000000000000000000000000000000000000000000000000000000000000000000000000000000000000000000000000000000000000000000000000000000000000000000000000000000000000000000000000000000000000000000000000000000000000000000000000000000000000000000000000000000000000000000000000000000000000000000000000000000000000000000000000000000",
      "type": "0x2",
      "transactionHash": "0xc12ab75192d6c47a62df8597ac6950ae8907b5dfbdd0a91a1693f1e7c5175369",
      "transactionIndex": "0x0",
      "blockHash": "0x90bf5f146784153a7cc98eee2c620f072161bb599dc0d82e4dd7a80bb71f3501",
      "blockNumber": "0x242cec7",
      "gasUsed": "0xf7e9",
      "effectiveGasPrice": "0x9502f900",
      "from": "0x81c9a3b742e42e4513daed893108f17e3430bf84",
      "to": "0xca31360ea0ee7be2cc48b98d1938acb3e5c89e8a",
      "contractAddress": null
    }
  ],
  "libraries": [],
  "pending": [
    "0x6031adf048ef9ca1651a198664a4532e00f8a67a29fcc01a64edace18dda3723",
    "0x293f6cea1a9f6f0b7894ebe1c20318d6542f7d8bda2567ecef9a706b0c3caa8f",
    "0xcb4edb1e49416c0933182b58ae73aa136001424bbb4b5e39b2f9d59304e2c4d7",
    "0x2530cf131c6734258501d2ad83ed4c62a54bbf91fc7bcb036475112f15787773",
    "0x8dd6531b33b45e4b9fd3aa1ea496d7004e557c906068ab266013e62a83a3bfce",
    "0xc9a0b0902458299d49254a372bfeb9f7a8519c577f920c54e14198fc08765632"
  ],
  "returns": {},
  "timestamp": 1738861093,
  "chain": 43113,
  "commit": "42e5aad"
}