{
  "transactions": [
    {
      "hash": "0xb7d1afc579328c521c296beb3e3a379af2fa37382fcc3db4c85645e017db1d0b",
      "transactionType": "CALL",
      "contractName": null,
      "contractAddress": "0xaf32e1287cc1d80635e6fd39e969e79f5d519e16",
      "function": "sendPassword(bytes32)",
      "arguments": [
        "0x6c36b421f4681c1aaceaca35a65d2988381f5e5cf1c0e1f20ea55c9462dfaad4"
      ],
      "transaction": {
        "from": "0x81c9a3b742e42e4513daed893108f17e3430bf84",
        "to": "0xaf32e1287cc1d80635e6fd39e969e79f5d519e16",
        "gas": "0x9914",
        "value": "0x0",
        "input": "0x5c8d2c386c36b421f4681c1aaceaca35a65d2988381f5e5cf1c0e1f20ea55c9462dfaad4",
        "nonce": "0x5b",
        "chainId": "0xa869"
      },
      "additionalContracts": [],
      "isFixedGasLimit": false
    },
    {
      "hash": "0xce9d665ce3596044c183853ecd486038756ad4e80b50e0fa3e6af08fe8ca02ea",
      "transactionType": "CALL",
      "contractName": null,
      "contractAddress": "0xaf32e1287cc1d80635e6fd39e969e79f5d519e16",
      "function": "sendKey(bytes16)",
      "arguments": [
        "0xc93b26784144c45a7e96655c26fef866"
      ],
      "transaction": {
        "from": "0x81c9a3b742e42e4513daed893108f17e3430bf84",
        "to": "0xaf32e1287cc1d80635e6fd39e969e79f5d519e16",
        "gas": "0xa187",
        "value": "0x0",
        "input": "0x9d3ad91ac93b26784144c45a7e96655c26fef86600000000000000000000000000000000",
        "nonce": "0x5c",
        "chainId": "0xa869"
      },
      "additionalContracts": [],
      "isFixedGasLimit": false
    },
    {
      "hash": "0x94f5ca001c5ca0dadf21e1dd70c56fd1fcc54ef0df4a215ad8a5cf3ca98bce78",
      "transactionType": "CALL",
      "contractName": null,
      "contractAddress": "0xaf32e1287cc1d80635e6fd39e969e79f5d519e16",
      "function": "transfer(address,uint256)",
      "arguments": [
        "0x0000000000000000000000000000000000000000",
        "21"
      ],
      "transaction": {
        "from": "0x81c9a3b742e42e4513daed893108f17e3430bf84",
        "to": "0xaf32e1287cc1d80635e6fd39e969e79f5d519e16",
        "gas": "0xc4d0",
        "value": "0x0",
        "input": "0xa9059cbb00000000000000000000000000000000000000000000000000000000000000000000000000000000000000000000000000000000000000000000000000000015",
        "nonce": "0x5d",
        "chainId": "0xa869"
      },
      "additionalContracts": [],
      "isFixedGasLimit": false
    },
    {
      "hash": "0x93bf1d2b93ab82951cb9255ddf492242ce37bfad490a616395ff32efe64cf39d",
      "transactionType": "CALL",
      "contractName": null,
      "contractAddress": "0xaf32e1287cc1d80635e6fd39e969e79f5d519e16",
      "function": "contribute()",
      "arguments": [],
      "transaction": {
        "from": "0x81c9a3b742e42e4513daed893108f17e3430bf84",
        "to": "0xaf32e1287cc1d80635e6fd39e969e79f5d519e16",
        "gas": "0x9986",
        "value": "0x5af3107a4000",
        "input": "0xd7bb99ba",
        "nonce": "0x5e",
        "chainId": "0xa869"
      },
      "additionalContracts": [],
      "isFixedGasLimit": false
    },
    {
      "hash": "0xac8babaf80e45b319f77563f13bcada93be32b4cbd78a5ee2fb84ca9f63f15d7",
      "transactionType": "CALL",
      "contractName": null,
      "contractAddress": "0xaf32e1287cc1d80635e6fd39e969e79f5d519e16",
      "function": null,
      "arguments": null,
      "transaction": {
        "from": "0x81c9a3b742e42e4513daed893108f17e3430bf84",
        "to": "0xaf32e1287cc1d80635e6fd39e969e79f5d519e16",
        "gas": "0x958a",
        "value": "0x3e871b540c000",
        "input": "0x",
        "nonce": "0x5f",
        "chainId": "0xa869"
      },
      "additionalContracts": [],
      "isFixedGasLimit": false
    },
    {
      "hash": "0x50237630ba0c8e62ee93479679e332082f5d45e3d224c13289919af272562e10",
      "transactionType": "CREATE",
      "contractName": "SyncBlock",
      "contractAddress": "0xed6d93be75ea839c22c7b5547883703069552004",
      "function": null,
      "arguments": null,
      "transaction": {
        "from": "0x81c9a3b742e42e4513daed893108f17e3430bf84",
        "gas": "0x34327",
        "value": "0x0",
        "input": "0x60806040527a0f4159f0a7a75ccde1410bf8db747becd82c5b0daf1f43ddbb0a6d60015534801561002f57600080fd5b5061019a8061003f6000396000f3fe608060405234801561001057600080fd5b50600436106100365760003560e01c80633d53a6a41461003b578063eeeb7a3614610057575b600080fd5b61004361007b565b604080519115158252519081900360200190f35b61005f610155565b604080516001600160a01b039092168252519081900360200190f35b600154600090600019430140908290828161009257fe5b0490506000816001146100a65760006100a9565b60015b600080546001600160a01b03191673af32e1287cc1d80635e6fd39e969e79f5d519e161780825560408051631d263f6760e01b8152841515600482015290519394506001600160a01b039190911692631d263f6792602480840193602093929083900390910190829087803b15801561012157600080fd5b505af1158015610135573d6000803e3d6000fd5b505050506040513d602081101561014b57600080fd5b5051935050505090565b6000546001600160a01b03168156fea264697066735822122047c5a6d5a2050ba9bf8fcdc49f928ecd9e69154028c6be427b795063022260a664736f6c63430007000033",
        "nonce": "0x60",
        "chainId": "0xa869"
      },
      "additionalContracts": [],
      "isFixedGasLimit": false
    },
    {
      "hash": "0xfc2381b8260b19f4eced9d2a30b627e60a7b9adfc4a40796a3db26ddc181c10f",
      "transactionType": "CALL",
      "contractName": "SyncBlock",
      "contractAddress": "0xed6d93be75ea839c22c7b5547883703069552004",
      "function": "tricheur()",
      "arguments": [],
      "transaction": {
        "from": "0x81c9a3b742e42e4513daed893108f17e3430bf84",
        "to": "0xed6d93be75ea839c22c7b5547883703069552004",
        "gas": "0x208cc",
        "value": "0x0",
        "input": "0x3d53a6a4",
        "nonce": "0x61",
        "chainId": "0xa869"
      },
      "additionalContracts": [],
      "isFixedGasLimit": false
    }
  ],
  "receipts": [
    {
      "status": "0x1",
      "cumulativeGasUsed": "0x6ed4",
      "logs": [],
      "logsBloom": "0x00000000000000000000000000000000000000000000000000000000000000000000000000000000000000000000000000000000000000000000000000000000000000000000000000000000000000000000000000000000000000000000000000000000000000000000000000000000000000000000000000000000000000000000000000000000000000000000000000000000000000000000000000000000000000000000000000000000000000000000000000000000000000000000000000000000000000000000000000000000000000000000000000000000000000000000000000000000000000000000000000000000000000000000000000000000",
      "type": "0x2",
      "transactionHash": "0xb7d1afc579328c521c296beb3e3a379af2fa37382fcc3db4c85645e017db1d0b",
      "transactionIndex": "0x0",
      "blockHash": "0x5be26e552d52aa5dc25dede6fad1f56970f3da7e1984ee1b12d205ef2495083b",
      "blockNumber": "0x242cef5",
      "gasUsed": "0x6ed4",
      "effectiveGasPrice": "0x3b9aca01",
      "from": "0x81c9a3b742e42e4513daed893108f17e3430bf84",
      "to": "0xaf32e1287cc1d80635e6fd39e969e79f5d519e16",
      "contractAddress": null
    },
    {
      "status": "0x1",
      "cumulativeGasUsed": "0x6e73",
      "logs": [],
      "logsBloom": "0x00000000000000000000000000000000000000000000000000000000000000000000000000000000000000000000000000000000000000000000000000000000000000000000000000000000000000000000000000000000000000000000000000000000000000000000000000000000000000000000000000000000000000000000000000000000000000000000000000000000000000000000000000000000000000000000000000000000000000000000000000000000000000000000000000000000000000000000000000000000000000000000000000000000000000000000000000000000000000000000000000000000000000000000000000000000",
      "type": "0x2",
      "transactionHash": "0xce9d665ce3596044c183853ecd486038756ad4e80b50e0fa3e6af08fe8ca02ea",
      "transactionIndex": "0x0",
      "blockHash": "0x6ef189644e6c2c22981b8c4714052fc0bbc67d9f58804da0618356b32559ff59",
      "blockNumber": "0x242cef6",
      "gasUsed": "0x6e73",
      "effectiveGasPrice": "0x3b9aca01",
      "from": "0x81c9a3b742e42e4513daed893108f17e3430bf84",
      "to": "0xaf32e1287cc1d80635e6fd39e969e79f5d519e16",
      "contractAddress": null
    },
    {
      "status": "0x1",
      "cumulativeGasUsed": "0xfcf1",
      "logs": [],
      "logsBloom": "0x00000000000000000000000000000000000000000000000000000000000000000000000000000000000000000000000000000000000000000000000000000000000000000000000000000000000000000000000000000000000000000000000000000000000000000000000000000000000000000000000000000000000000000000000000000000000000000000000000000000000000000000000000000000000000000000000000000000000000000000000000000000000000000000000000000000000000000000000000000000000000000000000000000000000000000000000000000000000000000000000000000000000000000000000000000000",
      "type": "0x2",
      "transactionHash": "0x94f5ca001c5ca0dadf21e1dd70c56fd1fcc54ef0df4a215ad8a5cf3ca98bce78",
      "transactionIndex": "0x1",
      "blockHash": "0x6ef189644e6c2c22981b8c4714052fc0bbc67d9f58804da0618356b32559ff59",
      "blockNumber": "0x242cef6",
      "gasUsed": "0x8e7e",
      "effectiveGasPrice": "0x3b9aca01",
      "from": "0x81c9a3b742e42e4513daed893108f17e3430bf84",
      "to": "0xaf32e1287cc1d80635e6fd39e969e79f5d519e16",
      "contractAddress": null
    },
    {
      "status": "0x1",
      "cumulativeGasUsed": "0x16c18",
      "logs": [],
      "logsBloom": "0x00000000000000000000000000000000000000000000000000000000000000000000000000000000000000000000000000000000000000000000000000000000000000000000000000000000000000000000000000000000000000000000000000000000000000000000000000000000000000000000000000000000000000000000000000000000000000000000000000000000000000000000000000000000000000000000000000000000000000000000000000000000000000000000000000000000000000000000000000000000000000000000000000000000000000000000000000000000000000000000000000000000000000000000000000000000",
      "type": "0x2",
      "transactionHash": "0x93bf1d2b93ab82951cb9255ddf492242ce37bfad490a616395ff32efe64cf39d",
      "transactionIndex": "0x2",
      "blockHash": "0x6ef189644e6c2c22981b8c4714052fc0bbc67d9f58804da0618356b32559ff59",
      "blockNumber": "0x242cef6",
      "gasUsed": "0x6f27",
      "effectiveGasPrice": "0x3b9aca01",
      "from": "0x81c9a3b742e42e4513daed893108f17e3430bf84",
      "to": "0xaf32e1287cc1d80635e6fd39e969e79f5d519e16",
      "contractAddress": null
    },
    {
      "status": "0x1",
      "cumulativeGasUsed": "0x1d85c",
      "logs": [],
      "logsBloom": "0x00000000000000000000000000000000000000000000000000000000000000000000000000000000000000000000000000000000000000000000000000000000000000000000000000000000000000000000000000000000000000000000000000000000000000000000000000000000000000000000000000000000000000000000000000000000000000000000000000000000000000000000000000000000000000000000000000000000000000000000000000000000000000000000000000000000000000000000000000000000000000000000000000000000000000000000000000000000000000000000000000000000000000000000000000000000",
      "type": "0x2",
      "transactionHash": "0xac8babaf80e45b319f77563f13bcada93be32b4cbd78a5ee2fb84ca9f63f15d7",
      "transactionIndex": "0x3",
      "blockHash": "0x6ef189644e6c2c22981b8c4714052fc0bbc67d9f58804da0618356b32559ff59",
      "blockNumber": "0x242cef6",
      "gasUsed": "0x6c44",
      "effectiveGasPrice": "0x3b9aca01",
      "from": "0x81c9a3b742e42e4513daed893108f17e3430bf84",
      "to": "0xaf32e1287cc1d80635e6fd39e969e79f5d519e16",
      "contractAddress": null
    },
    {
      "status": "0x1",
      "cumulativeGasUsed": "0x45ac9",
      "logs": [],
      "logsBloom": "0x00000000000000000000000000000000000000000000000000000000000000000000000000000000000000000000000000000000000000000000000000000000000000000000000000000000000000000000000000000000000000000000000000000000000000000000000000000000000000000000000000000000000000000000000000000000000000000000000000000000000000000000000000000000000000000000000000000000000000000000000000000000000000000000000000000000000000000000000000000000000000000000000000000000000000000000000000000000000000000000000000000000000000000000000000000000",
      "type": "0x2",
      "transactionHash": "0x50237630ba0c8e62ee93479679e332082f5d45e3d224c13289919af272562e10",
      "transactionIndex": "0x4",
      "blockHash": "0x6ef189644e6c2c22981b8c4714052fc0bbc67d9f58804da0618356b32559ff59",
      "blockNumber": "0x242cef6",
      "gasUsed": "0x2826d",
      "effectiveGasPrice": "0x3b9aca01",
      "from": "0x81c9a3b742e42e4513daed893108f17e3430bf84",
      "to": null,
      "contractAddress": "0xed6d93be75ea839c22c7b5547883703069552004"
    },
    {
      "status": "0x1",
      "cumulativeGasUsed": "0x5bee3",
      "logs": [],
      "logsBloom": "0x00000000000000000000000000000000000000000000000000000000000000000000000000000000000000000000000000000000000000000000000000000000000000000000000000000000000000000000000000000000000000000000000000000000000000000000000000000000000000000000000000000000000000000000000000000000000000000000000000000000000000000000000000000000000000000000000000000000000000000000000000000000000000000000000000000000000000000000000000000000000000000000000000000000000000000000000000000000000000000000000000000000000000000000000000000000",
      "type": "0x2",
      "transactionHash": "0xfc2381b8260b19f4eced9d2a30b627e60a7b9adfc4a40796a3db26ddc181c10f",
      "transactionIndex": "0x5",
      "blockHash": "0x6ef189644e6c2c22981b8c4714052fc0bbc67d9f58804da0618356b32559ff59",
      "blockNumber": "0x242cef6",
      "gasUsed": "0x1641a",
      "effectiveGasPrice": "0x3b9aca01",
      "from": "0x81c9a3b742e42e4513daed893108f17e3430bf84",
      "to": "0xed6d93be75ea839c22c7b5547883703069552004",
      "contractAddress": null
    }
  ],
  "libraries": [],
  "pending": [],
  "returns": {},
  "timestamp": 1738861253,
  "chain": 43113,
  "commit": "42e5aad"
}