{
  "transactions": [
    {
      "hash": "0xece3e34010737fd702ad9096ff3171e09df0720be8d88172ebab186de19cfa7c",
      "transactionType": "CALL",
      "contractName": null,
      "contractAddress": "0xaf32e1287cc1d80635e6fd39e969e79f5d519e16",
      "function": "sendPassword(bytes32)",
      "arguments": [
        "0x6c36b421f4681c1aaceaca35a65d2988381f5e5cf1c0e1f20ea55c9462dfaad4"
      ],
      "transaction": {
        "from": "0x81c9a3b742e42e4513daed893108f17e3430bf84",
        "to": "0xaf32e1287cc1d80635e6fd39e969e79f5d519e16",
        "gas": "0x9914",
        "value": "0x0",
        "input": "0x5c8d2c386c36b421f4681c1aaceaca35a65d2988381f5e5cf1c0e1f20ea55c9462dfaad4",
        "nonce": "0x13",
        "chainId": "0xa869"
      },
      "additionalContracts": [],
      "isFixedGasLimit": false
    },
    {
      "hash": "0x4d28dcdc759a30ad85b394364c167ea43271a45dba3e96fa7b407ba0c934b89e",
      "transactionType": "CALL",
      "contractName": null,
      "contractAddress": "0xaf32e1287cc1d80635e6fd39e969e79f5d519e16",
      "function": "transfer(address,uint256)",
      "arguments": [
        "0x0000000000000000000000000000000000000000",
        "21"
      ],
      "transaction": {
        "from": "0x81c9a3b742e42e4513daed893108f17e3430bf84",
        "to": "0xaf32e1287cc1d80635e6fd39e969e79f5d519e16",
        "gas": "0xc4d0",
        "value": "0x0",
        "input": "0xa9059cbb00000000000000000000000000000000000000000000000000000000000000000000000000000000000000000000000000000000000000000000000000000015",
        "nonce": "0x14",
        "chainId": "0xa869"
      },
      "additionalContracts": [],
      "isFixedGasLimit": false
    },
    {
      "hash": "0x3937d25fe558bca2ecae1b9f6ba8d6a1988411c087dfcbd4a5df1987ecb431e5",
      "transactionType": "CALL",
      "contractName": null,
      "contractAddress": "0xaf32e1287cc1d80635e6fd39e969e79f5d519e16",
      "function": "contribute()",
      "arguments": [],
      "transaction": {
        "from": "0x81c9a3b742e42e4513daed893108f17e3430bf84",
        "to": "0xaf32e1287cc1d80635e6fd39e969e79f5d519e16",
        "gas": "0x9986",
        "value": "0x5af3107a4000",
        "input": "0xd7bb99ba",
        "nonce": "0x15",
        "chainId": "0xa869"
      },
      "additionalContracts": [],
      "isFixedGasLimit": false
    },
    {
      "hash": "0x486a41cf4785ee596de8bad157971ad4decfdc4032ac7485454f279632a9410e",
      "transactionType": "CALL",
      "contractName": null,
      "contractAddress": "0xaf32e1287cc1d80635e6fd39e969e79f5d519e16",
      "function": null,
      "arguments": null,
      "transaction": {
        "from": "0x81c9a3b742e42e4513daed893108f17e3430bf84",
        "to": "0xaf32e1287cc1d80635e6fd39e969e79f5d519e16",
        "gas": "0x958a",
        "value": "0x3e871b540c000",
        "input": "0x",
        "nonce": "0x16",
        "chainId": "0xa869"
      },
      "additionalContracts": [],
      "isFixedGasLimit": false
    }
  ],
  "receipts": [
    {
      "status": "0x1",
      "cumulativeGasUsed": "0x6ed4",
      "logs": [],
      "logsBloom": "0x00000000000000000000000000000000000000000000000000000000000000000000000000000000000000000000000000000000000000000000000000000000000000000000000000000000000000000000000000000000000000000000000000000000000000000000000000000000000000000000000000000000000000000000000000000000000000000000000000000000000000000000000000000000000000000000000000000000000000000000000000000000000000000000000000000000000000000000000000000000000000000000000000000000000000000000000000000000000000000000000000000000000000000000000000000000",
      "type": "0x2",
      "transactionHash": "0xece3e34010737fd702ad9096ff3171e09df0720be8d88172ebab186de19cfa7c",
      "transactionIndex": "0x0",
      "blockHash": "0x8b16a8662149691fef43442ba0ddd342590554628b2a8e5ef817ec90d1c19907",
      "blockNumber": "0x242ce08",
      "gasUsed": "0x6ed4",
      "effectiveGasPrice": "0x2f0823640",
      "from": "0x81c9a3b742e42e4513daed893108f17e3430bf84",
      "to": "0xaf32e1287cc1d80635e6fd39e969e79f5d519e16",
      "contractAddress": null
    },
    {
      "status": "0x1",
      "cumulativeGasUsed": "0xfd52",
      "logs": [],
      "logsBloom": "0x00000000000000000000000000000000000000000000000000000000000000000000000000000000000000000000000000000000000000000000000000000000000000000000000000000000000000000000000000000000000000000000000000000000000000000000000000000000000000000000000000000000000000000000000000000000000000000000000000000000000000000000000000000000000000000000000000000000000000000000000000000000000000000000000000000000000000000000000000000000000000000000000000000000000000000000000000000000000000000000000000000000000000000000000000000000",
      "type": "0x2",
      "transactionHash": "0x4d28dcdc759a30ad85b394364c167ea43271a45dba3e96fa7b407ba0c934b89e",
      "transactionIndex": "0x1",
      "blockHash": "0x8b16a8662149691fef43442ba0ddd342590554628b2a8e5ef817ec90d1c19907",
      "blockNumber": "0x242ce08",
      "gasUsed": "0x8e7e",
      "effectiveGasPrice": "0x2f0823640",
      "from": "0x81c9a3b742e42e4513daed893108f17e3430bf84",
      "to": "0xaf32e1287cc1d80635e6fd39e969e79f5d519e16",
      "contractAddress": null
    },
    {
      "status": "0x1",
      "cumulativeGasUsed": "0x6f27",
      "logs": [],
      "logsBloom": "0x00000000000000000000000000000000000000000000000000000000000000000000000000000000000000000000000000000000000000000000000000000000000000000000000000000000000000000000000000000000000000000000000000000000000000000000000000000000000000000000000000000000000000000000000000000000000000000000000000000000000000000000000000000000000000000000000000000000000000000000000000000000000000000000000000000000000000000000000000000000000000000000000000000000000000000000000000000000000000000000000000000000000000000000000000000000",
      "type": "0x2",
      "transactionHash": "0x3937d25fe558bca2ecae1b9f6ba8d6a1988411c087dfcbd4a5df1987ecb431e5",
      "transactionIndex": "0x0",
      "blockHash": "0xc24f6b547435484774a6183411e1a58d5903e186fc25433dadbd8b2b4dadbefb",
      "blockNumber": "0x242ce09",
      "gasUsed": "0x6f27",
      "effectiveGasPrice": "0x2f0823640",
      "from": "0x81c9a3b742e42e4513daed893108f17e3430bf84",
      "to": "0xaf32e1287cc1d80635e6fd39e969e79f5d519e16",
      "contractAddress": null
    },
    {
      "status": "0x1",
      "cumulativeGasUsed": "0xdb6b",
      "logs": [],
      "logsBloom": "0x00000000000000000000000000000000000000000000000000000000000000000000000000000000000000000000000000000000000000000000000000000000000000000000000000000000000000000000000000000000000000000000000000000000000000000000000000000000000000000000000000000000000000000000000000000000000000000000000000000000000000000000000000000000000000000000000000000000000000000000000000000000000000000000000000000000000000000000000000000000000000000000000000000000000000000000000000000000000000000000000000000000000000000000000000000000",
      "type": "0x2",
      "transactionHash": "0x486a41cf4785ee596de8bad157971ad4decfdc4032ac7485454f279632a9410e",
      "transactionIndex": "0x1",
      "blockHash": "0xc24f6b547435484774a6183411e1a58d5903e186fc25433dadbd8b2b4dadbefb",
      "blockNumber": "0x242ce09",
      "gasUsed": "0x6c44",
      "effectiveGasPrice": "0x2f0823640",
      "from": "0x81c9a3b742e42e4513daed893108f17e3430bf84",
      "to": "0xaf32e1287cc1d80635e6fd39e969e79f5d519e16",
      "contractAddress": null
    }
  ],
  "libraries": [],
  "pending": [],
  "returns": {},
  "timestamp": 1738859978,
  "chain": 43113,
  "commit": "42e5aad"
}