{
  "transactions": [
    {
      "hash": "0x5576992437371e1f37ea4b9b331943bdcdfef67eb470bf7a0c1e63ae0f9ce4eb",
      "transactionType": "CALL",
      "contractName": null,
      "contractAddress": "0xaf32e1287cc1d80635e6fd39e969e79f5d519e16",
      "function": "sendPassword(bytes32)",
      "arguments": [
        "0x6c36b421f4681c1aaceaca35a65d2988381f5e5cf1c0e1f20ea55c9462dfaad4"
      ],
      "transaction": {
        "from": "0x81c9a3b742e42e4513daed893108f17e3430bf84",
        "to": "0xaf32e1287cc1d80635e6fd39e969e79f5d519e16",
        "gas": "0x194ce",
        "value": "0x0",
        "input": "0x5c8d2c386c36b421f4681c1aaceaca35a65d2988381f5e5cf1c0e1f20ea55c9462dfaad4",
        "nonce": "0x0",
        "chainId": "0xa869"
      },
      "additionalContracts": [],
      "isFixedGasLimit": false
    },
    {
      "hash": "0x2961a655234109e60659844c8af04bd6dbf0453d5c460fa0f9b8113bfe7356e1",
      "transactionType": "CALL",
      "contractName": null,
      "contractAddress": "0xaf32e1287cc1d80635e6fd39e969e79f5d519e16",
      "function": "transfer(address,uint256)",
      "arguments": [
        "0x0000000000000000000000000000000000000000",
        "21"
      ],
      "transaction": {
        "from": "0x81c9a3b742e42e4513daed893108f17e3430bf84",
        "to": "0xaf32e1287cc1d80635e6fd39e969e79f5d519e16",
        "gas": "0x1aa22",
        "value": "0x0",
        "input": "0xa9059cbb00000000000000000000000000000000000000000000000000000000000000000000000000000000000000000000000000000000000000000000000000000015",
        "nonce": "0x1",
        "chainId": "0xa869"
      },
      "additionalContracts": [],
      "isFixedGasLimit": false
    },
    {
      "hash": "0xffcbc320e3dde12d427cec61e54ea4eb45602c74ab6dd02111544ad097108e1a",
      "transactionType": "CALL",
      "contractName": null,
      "contractAddress": "0xaf32e1287cc1d80635e6fd39e969e79f5d519e16",
      "function": "contribute()",
      "arguments": [],
      "transaction": {
        "from": "0x81c9a3b742e42e4513daed893108f17e3430bf84",
        "to": "0xaf32e1287cc1d80635e6fd39e969e79f5d519e16",
        "gas": "0x1043f",
        "value": "0x5af3107a4000",
        "input": "0xd7bb99ba",
        "nonce": "0x2",
        "chainId": "0xa869"
      },
      "additionalContracts": [],
      "isFixedGasLimit": false
    },
    {
      "hash": "0xe1edf44bea901d950dd1249dc2b68618618ed8dc914a1ea2e9d30d5b75d1f93a",
      "transactionType": "CALL",
      "contractName": null,
      "contractAddress": "0xaf32e1287cc1d80635e6fd39e969e79f5d519e16",
      "function": null,
      "arguments": null,
      "transaction": {
        "from": "0x81c9a3b742e42e4513daed893108f17e3430bf84",
        "to": "0xaf32e1287cc1d80635e6fd39e969e79f5d519e16",
        "gas": "0x11e83",
        "value": "0x3e871b540c000",
        "input": "0x",
        "nonce": "0x3",
        "chainId": "0xa869"
      },
      "additionalContracts": [],
      "isFixedGasLimit": false
    }
  ],
  "receipts": [
    {
      "status": "0x1",
      "cumulativeGasUsed": "0x114cb",
      "logs": [],
      "logsBloom": "0x00000000000000000000000000000000000000000000000000000000000000000000000000000000000000000000000000000000000000000000000000000000000000000000000000000000000000000000000000000000000000000000000000000000000000000000000000000000000000000000000000000000000000000000000000000000000000000000000000000000000000000000000000000000000000000000000000000000000000000000000000000000000000000000000000000000000000000000000000000000000000000000000000000000000000000000000000000000000000000000000000000000000000000000000000000000",
      "type": "0x2",
      "transactionHash": "0x5576992437371e1f37ea4b9b331943bdcdfef67eb470bf7a0c1e63ae0f9ce4eb",
      "transactionIndex": "0x0",
      "blockHash": "0x91e95f6451fd9eb2c8a875569d1ff996f70649866af4d27527f1e76b624be648",
      "blockNumber": "0x242cdd1",
      "gasUsed": "0x114cb",
      "effectiveGasPrice": "0x89d5f320",
      "from": "0x81c9a3b742e42e4513daed893108f17e3430bf84",
      "to": "0xaf32e1287cc1d80635e6fd39e969e79f5d519e16",
      "contractAddress": null
    },
    {
      "status": "0x1",
      "cumulativeGasUsed": "0x13484",
      "logs": [],
      "logsBloom": "0x00000000000000000000000000000000000000000000000000000000000000000000000000000000000000000000000000000000000000000000000000000000000000000000000000000000000000000000000000000000000000000000000000000000000000000000000000000000000000000000000000000000000000000000000000000000000000000000000000000000000000000000000000000000000000000000000000000000000000000000000000000000000000000000000000000000000000000000000000000000000000000000000000000000000000000000000000000000000000000000000000000000000000000000000000000000",
      "type": "0x2",
      "transactionHash": "0x2961a655234109e60659844c8af04bd6dbf0453d5c460fa0f9b8113bfe7356e1",
      "transactionIndex": "0x0",
      "blockHash": "0x44f67e63cea06bd7255310601a6a2e50a664fee3e2e0b3795547bbd0a7562448",
      "blockNumber": "0x242cdd2",
      "gasUsed": "0x13484",
      "effectiveGasPrice": "0x89d5f320",
      "from": "0x81c9a3b742e42e4513daed893108f17e3430bf84",
      "to": "0xaf32e1287cc1d80635e6fd39e969e79f5d519e16",
      "contractAddress": null
    },
    {
      "status": "0x1",
      "cumulativeGasUsed": "0x1e677",
      "logs": [],
      "logsBloom": "0x00000000000000000000000000000000000000000000000000000000000000000000000000000000000000000000000000000000000000000000000000000000000000000000000000000000000000000000000000000000000000000000000000000000000000000000000000000000000000000000000000000000000000000000000000000000000000000000000000000000000000000000000000000000000000000000000000000000000000000000000000000000000000000000000000000000000000000000000000000000000000000000000000000000000000000000000000000000000000000000000000000000000000000000000000000000",
      "type": "0x2",
      "transactionHash": "0xffcbc320e3dde12d427cec61e54ea4eb45602c74ab6dd02111544ad097108e1a",
      "transactionIndex": "0x1",
      "blockHash": "0x44f67e63cea06bd7255310601a6a2e50a664fee3e2e0b3795547bbd0a7562448",
      "blockNumber": "0x242cdd2",
      "gasUsed": "0xb1f3",
      "effectiveGasPrice": "0x89d5f320",
      "from": "0x81c9a3b742e42e4513daed893108f17e3430bf84",
      "to": "0xaf32e1287cc1d80635e6fd39e969e79f5d519e16",
      "contractAddress": null
    },
    {
      "status": "0x1",
      "cumulativeGasUsed": "0x2b5e6",
      "logs": [],
      "logsBloom": "0x00000000000000000000000000000000000000000000000000000000000000000000000000000000000000000000000000000000000000000000000000000000000000000000000000000000000000000000000000000000000000000000000000000000000000000000000000000000000000000000000000000000000000000000000000000000000000000000000000000000000000000000000000000000000000000000000000000000000000000000000000000000000000000000000000000000000000000000000000000000000000000000000000000000000000000000000000000000000000000000000000000000000000000000000000000000",
      "type": "0x2",
      "transactionHash": "0xe1edf44bea901d950dd1249dc2b68618618ed8dc914a1ea2e9d30d5b75d1f93a",
      "transactionIndex": "0x2",
      "blockHash": "0x44f67e63cea06bd7255310601a6a2e50a664fee3e2e0b3795547bbd0a7562448",
      "blockNumber": "0x242cdd2",
      "gasUsed": "0xcf6f",
      "effectiveGasPrice": "0x89d5f320",
      "from": "0x81c9a3b742e42e4513daed893108f17e3430bf84",
      "to": "0xaf32e1287cc1d80635e6fd39e969e79f5d519e16",
      "contractAddress": null
    }
  ],
  "libraries": [],
  "pending": [],
  "returns": {},
  "timestamp": 1738859551,
  "chain": 43113,
  "commit": "42e5aad"
}