{
  "transactions": [
    {
      "hash": "0x8c1f82e2f81cb5c582b1951a50a45cc2233895a200d875fcdfc6d8a15c11aa11",
      "transactionType": "CALL",
      "contractName": null,
      "contractAddress": "0xaf32e1287cc1d80635e6fd39e969e79f5d519e16",
      "function": "sendPassword(bytes32)",
      "arguments": [
        "0x6c36b421f4681c1aaceaca35a65d2988381f5e5cf1c0e1f20ea55c9462dfaad4"
      ],
      "transaction": {
        "from": "0x81c9a3b742e42e4513daed893108f17e3430bf84",
        "to": "0xaf32e1287cc1d80635e6fd39e969e79f5d519e16",
        "gas": "0x9914",
        "value": "0x0",
        "input": "0x5c8d2c386c36b421f4681c1aaceaca35a65d2988381f5e5cf1c0e1f20ea55c9462dfaad4",
        "nonce": "0x23",
        "chainId": "0xa869"
      },
      "additionalContracts": [],
      "isFixedGasLimit": false
    },
    {
      "hash": "0x28e0b517cc1aa36d2c8863cb0454b8fe16ad713ce62156fd9f5fc75529fe2adf",
      "transactionType": "CALL",
      "contractName": null,
      "contractAddress": "0xaf32e1287cc1d80635e6fd39e969e79f5d519e16",
      "function": "sendKey(bytes16)",
      "arguments": [
        "0xc93b26784144c45a7e96655c26fef866"
      ],
      "transaction": {
        "from": "0x81c9a3b742e42e4513daed893108f17e3430bf84",
        "to": "0xaf32e1287cc1d80635e6fd39e969e79f5d519e16",
        "gas": "0xa187",
        "value": "0x0",
        "input": "0x9d3ad91ac93b26784144c45a7e96655c26fef86600000000000000000000000000000000",
        "nonce": "0x24",
        "chainId": "0xa869"
      },
      "additionalContracts": [],
      "isFixedGasLimit": false
    },
    {
      "hash": "0xea85282a461e980c4dcf0a6ae396bb0b6ad9583ab52f164cc3b2a525929482fc",
      "transactionType": "CALL",
      "contractName": null,
      "contractAddress": "0xaf32e1287cc1d80635e6fd39e969e79f5d519e16",
      "function": "transfer(address,uint256)",
      "arguments": [
        "0x0000000000000000000000000000000000000000",
        "21"
      ],
      "transaction": {
        "from": "0x81c9a3b742e42e4513daed893108f17e3430bf84",
        "to": "0xaf32e1287cc1d80635e6fd39e969e79f5d519e16",
        "gas": "0xc4d0",
        "value": "0x0",
        "input": "0xa9059cbb00000000000000000000000000000000000000000000000000000000000000000000000000000000000000000000000000000000000000000000000000000015",
        "nonce": "0x25",
        "chainId": "0xa869"
      },
      "additionalContracts": [],
      "isFixedGasLimit": false
    },
    {
      "hash": "0xbff3e376c12b6e58af9a22de63c44d100de295f365f6d7f2fa9171a40c9dc1f7",
      "transactionType": "CALL",
      "contractName": null,
      "contractAddress": "0xaf32e1287cc1d80635e6fd39e969e79f5d519e16",
      "function": "contribute()",
      "arguments": [],
      "transaction": {
        "from": "0x81c9a3b742e42e4513daed893108f17e3430bf84",
        "to": "0xaf32e1287cc1d80635e6fd39e969e79f5d519e16",
        "gas": "0x9986",
        "value": "0x5af3107a4000",
        "input": "0xd7bb99ba",
        "nonce": "0x26",
        "chainId": "0xa869"
      },
      "additionalContracts": [],
      "isFixedGasLimit": false
    },
    {
      "hash": "0x118fbe5121ccee1839cce80ad510a72c14db5624135d819df656c6790415c0bd",
      "transactionType": "CALL",
      "contractName": null,
      "contractAddress": "0xaf32e1287cc1d80635e6fd39e969e79f5d519e16",
      "function": null,
      "arguments": null,
      "transaction": {
        "from": "0x81c9a3b742e42e4513daed893108f17e3430bf84",
        "to": "0xaf32e1287cc1d80635e6fd39e969e79f5d519e16",
        "gas": "0x958a",
        "value": "0x3e871b540c000",
        "input": "0x",
        "nonce": "0x27",
        "chainId": "0xa869"
      },
      "additionalContracts": [],
      "isFixedGasLimit": false
    },
    {
      "hash": "0xd39950108e2ca6eabd686fcf0e237f1edfcf1c962d5ec9bb52e6b900841cad4b",
      "transactionType": "CREATE",
      "contractName": "SyncBlock",
      "contractAddress": "0x38faa63f71aa77a7177e2864b45bb8a594cc4ed6",
      "function": null,
      "arguments": null,
      "transaction": {
        "from": "0x81c9a3b742e42e4513daed893108f17e3430bf84",
        "gas": "0x34327",
        "value": "0x0",
        "input": "0x60806040527a0f4159f0a7a75ccde1410bf8db747becd82c5b0daf1f43ddbb0a6d60015534801561002f57600080fd5b5061019a8061003f6000396000f3fe608060405234801561001057600080fd5b50600436106100365760003560e01c80633d53a6a41461003b578063eeeb7a3614610057575b600080fd5b61004361007b565b604080519115158252519081900360200190f35b61005f610155565b604080516001600160a01b039092168252519081900360200190f35b600154600090600019430140908290828161009257fe5b0490506000816001146100a65760006100a9565b60015b600080546001600160a01b03191673af32e1287cc1d80635e6fd39e969e79f5d519e161780825560408051631d263f6760e01b8152841515600482015290519394506001600160a01b039190911692631d263f6792602480840193602093929083900390910190829087803b15801561012157600080fd5b505af1158015610135573d6000803e3d6000fd5b505050506040513d602081101561014b57600080fd5b5051935050505090565b6000546001600160a01b03168156fea264697066735822122047c5a6d5a2050ba9bf8fcdc49f928ecd9e69154028c6be427b795063022260a664736f6c63430007000033",
        "nonce": "0x28",
        "chainId": "0xa869"
      },
      "additionalContracts": [],
      "isFixedGasLimit": false
    },
    {
      "hash": "0xf4808680d49bdf8d842a2ec4a42dfc7874210f48326d577d11b58ca21700513a",
      "transactionType": "CALL",
      "contractName": "SyncBlock",
      "contractAddress": "0x38faa63f71aa77a7177e2864b45bb8a594cc4ed6",
      "function": "tricheur()",
      "arguments": [],
      "transaction": {
        "from": "0x81c9a3b742e42e4513daed893108f17e3430bf84",
        "to": "0x38faa63f71aa77a7177e2864b45bb8a594cc4ed6",
        "gas": "0x16a91",
        "value": "0x0",
        "input": "0x3d53a6a4",
        "nonce": "0x29",
        "chainId": "0xa869"
      },
      "additionalContracts": [],
      "isFixedGasLimit": false
    }
  ],
  "receipts": [],
  "libraries": [],
  "pending": [
    "0x8c1f82e2f81cb5c582b1951a50a45cc2233895a200d875fcdfc6d8a15c11aa11",
    "0x28e0b517cc1aa36d2c8863cb0454b8fe16ad713ce62156fd9f5fc75529fe2adf",
    "0xea85282a461e980c4dcf0a6ae396bb0b6ad9583ab52f164cc3b2a525929482fc",
    "0xbff3e376c12b6e58af9a22de63c44d100de295f365f6d7f2fa9171a40c9dc1f7",
    "0x118fbe5121ccee1839cce80ad510a72c14db5624135d819df656c6790415c0bd",
    "0xd39950108e2ca6eabd686fcf0e237f1edfcf1c962d5ec9bb52e6b900841cad4b",
    "0xf4808680d49bdf8d842a2ec4a42dfc7874210f48326d577d11b58ca21700513a"
  ],
  "returns": {},
  "timestamp": 1738861060,
  "chain": 43113,
  "commit": "42e5aad"
}