{
  "transactions": [
    {
      "hash": "0x67da2c2c494e613d068f4e54d5060d5b794ebaadd2fb3b6f1dc641c1559d1b62",
      "transactionType": "CALL",
      "contractName": null,
      "contractAddress": "0xaf32e1287cc1d80635e6fd39e969e79f5d519e16",
      "function": "sendPassword(bytes32)",
      "arguments": [
        "0x6c36b421f4681c1aaceaca35a65d2988381f5e5cf1c0e1f20ea55c9462dfaad4"
      ],
      "transaction": {
        "from": "0x81c9a3b742e42e4513daed893108f17e3430bf84",
        "to": "0xaf32e1287cc1d80635e6fd39e969e79f5d519e16",
        "gas": "0x9914",
        "value": "0x0",
        "input": "0x5c8d2c386c36b421f4681c1aaceaca35a65d2988381f5e5cf1c0e1f20ea55c9462dfaad4",
        "nonce": "0x54",
        "chainId": "0xa869"
      },
      "additionalContracts": [],
      "isFixedGasLimit": false
    },
    {
      "hash": "0x86984c135f9b229f31cce117ec633532d9b2db550b0ac58328342149af5ace3b",
      "transactionType": "CALL",
      "contractName": null,
      "contractAddress": "0xaf32e1287cc1d80635e6fd39e969e79f5d519e16",
      "function": "sendKey(bytes16)",
      "arguments": [
        "0xc93b26784144c45a7e96655c26fef866"
      ],
      "transaction": {
        "from": "0x81c9a3b742e42e4513daed893108f17e3430bf84",
        "to": "0xaf32e1287cc1d80635e6fd39e969e79f5d519e16",
        "gas": "0xa187",
        "value": "0x0",
        "input": "0x9d3ad91ac93b26784144c45a7e96655c26fef86600000000000000000000000000000000",
        "nonce": "0x55",
        "chainId": "0xa869"
      },
      "additionalContracts": [],
      "isFixedGasLimit": false
    },
    {
      "hash": "0x9a3aad26cb5ed32484e807a3f82b576311e85f1b50882c8068758421c41c1823",
      "transactionType": "CALL",
      "contractName": null,
      "contractAddress": "0xaf32e1287cc1d80635e6fd39e969e79f5d519e16",
      "function": "transfer(address,uint256)",
      "arguments": [
        "0x0000000000000000000000000000000000000000",
        "21"
      ],
      "transaction": {
        "from": "0x81c9a3b742e42e4513daed893108f17e3430bf84",
        "to": "0xaf32e1287cc1d80635e6fd39e969e79f5d519e16",
        "gas": "0xc4d0",
        "value": "0x0",
        "input": "0xa9059cbb00000000000000000000000000000000000000000000000000000000000000000000000000000000000000000000000000000000000000000000000000000015",
        "nonce": "0x56",
        "chainId": "0xa869"
      },
      "additionalContracts": [],
      "isFixedGasLimit": false
    },
    {
      "hash": "0x997bab65a6a752004880778ae1fd235ef4d4c7f6dcdc6387bd71b3184fc8c7a6",
      "transactionType": "CALL",
      "contractName": null,
      "contractAddress": "0xaf32e1287cc1d80635e6fd39e969e79f5d519e16",
      "function": "contribute()",
      "arguments": [],
      "transaction": {
        "from": "0x81c9a3b742e42e4513daed893108f17e3430bf84",
        "to": "0xaf32e1287cc1d80635e6fd39e969e79f5d519e16",
        "gas": "0x9986",
        "value": "0x5af3107a4000",
        "input": "0xd7bb99ba",
        "nonce": "0x57",
        "chainId": "0xa869"
      },
      "additionalContracts": [],
      "isFixedGasLimit": false
    },
    {
      "hash": "0x3af229f211609599c617c90759f43b597f4023011363ad863e79ec8d7de84bfc",
      "transactionType": "CALL",
      "contractName": null,
      "contractAddress": "0xaf32e1287cc1d80635e6fd39e969e79f5d519e16",
      "function": null,
      "arguments": null,
      "transaction": {
        "from": "0x81c9a3b742e42e4513daed893108f17e3430bf84",
        "to": "0xaf32e1287cc1d80635e6fd39e969e79f5d519e16",
        "gas": "0x958a",
        "value": "0x3e871b540c000",
        "input": "0x",
        "nonce": "0x58",
        "chainId": "0xa869"
      },
      "additionalContracts": [],
      "isFixedGasLimit": false
    },
    {
      "hash": "0x2f01168dfb63f20f274408d32f36c75d221d41fc0487516b3b6f798a7b5417a5",
      "transactionType": "CREATE",
      "contractName": "SyncBlock",
      "contractAddress": "0x8b58fd18c729e3853b26971d678c569002cb8ef6",
      "function": null,
      "arguments": null,
      "transaction": {
        "from": "0x81c9a3b742e42e4513daed893108f17e3430bf84",
        "gas": "0x34327",
        "value": "0x0",
        "input": "0x60806040527a0f4159f0a7a75ccde1410bf8db747becd82c5b0daf1f43ddbb0a6d60015534801561002f57600080fd5b5061019a8061003f6000396000f3fe608060405234801561001057600080fd5b50600436106100365760003560e01c80633d53a6a41461003b578063eeeb7a3614610057575b600080fd5b61004361007b565b604080519115158252519081900360200190f35b61005f610155565b604080516001600160a01b039092168252519081900360200190f35b600154600090600019430140908290828161009257fe5b0490506000816001146100a65760006100a9565b60015b600080546001600160a01b03191673af32e1287cc1d80635e6fd39e969e79f5d519e161780825560408051631d263f6760e01b8152841515600482015290519394506001600160a01b039190911692631d263f6792602480840193602093929083900390910190829087803b15801561012157600080fd5b505af1158015610135573d6000803e3d6000fd5b505050506040513d602081101561014b57600080fd5b5051935050505090565b6000546001600160a01b03168156fea264697066735822122047c5a6d5a2050ba9bf8fcdc49f928ecd9e69154028c6be427b795063022260a664736f6c63430007000033",
        "nonce": "0x59",
        "chainId": "0xa869"
      },
      "additionalContracts": [],
      "isFixedGasLimit": false
    },
    {
      "hash": "0x765200d03533d73f91dc36eb01822fe9879812251eb793686b20088e5d2023a7",
      "transactionType": "CALL",
      "contractName": "SyncBlock",
      "contractAddress": "0x8b58fd18c729e3853b26971d678c569002cb8ef6",
      "function": "tricheur()",
      "arguments": [],
      "transaction": {
        "from": "0x81c9a3b742e42e4513daed893108f17e3430bf84",
        "to": "0x8b58fd18c729e3853b26971d678c569002cb8ef6",
        "gas": "0x16a91",
        "value": "0x0",
        "input": "0x3d53a6a4",
        "nonce": "0x5a",
        "chainId": "0xa869"
      },
      "additionalContracts": [],
      "isFixedGasLimit": false
    }
  ],
  "receipts": [
    {
      "status": "0x1",
      "cumulativeGasUsed": "0x1c2be",
      "logs": [],
      "logsBloom": "0x00000000000000000000000000000000000000000000000000000000000000000000000000000000000000000000000000000000000000000000000000000000000000000000000000000000000000000000000000000000000000000000000000000000000000000000000000000000000000000000000000000000000000000000000000000000000000000000000000000000000000000000000000000000000000000000000000000000000000000000000000000000000000000000000000000000000000000000000000000000000000000000000000000000000000000000000000000000000000000000000000000000000000000000000000000000",
      "type": "0x2",
      "transactionHash": "0x67da2c2c494e613d068f4e54d5060d5b794ebaadd2fb3b6f1dc641c1559d1b62",
      "transactionIndex": "0x1",
      "blockHash": "0x2079568d517b9b5fd6466f67b7f0309263aa52798664bfcda4bd9845d79b37fa",
      "blockNumber": "0x242ceea",
      "gasUsed": "0x6ed4",
      "effectiveGasPrice": "0x47868c01",
      "from": "0x81c9a3b742e42e4513daed893108f17e3430bf84",
      "to": "0xaf32e1287cc1d80635e6fd39e969e79f5d519e16",
      "contractAddress": null
    },
    {
      "status": "0x1",
      "cumulativeGasUsed": "0x23131",
      "logs": [],
      "logsBloom": "0x00000000000000000000000000000000000000000000000000000000000000000000000000000000000000000000000000000000000000000000000000000000000000000000000000000000000000000000000000000000000000000000000000000000000000000000000000000000000000000000000000000000000000000000000000000000000000000000000000000000000000000000000000000000000000000000000000000000000000000000000000000000000000000000000000000000000000000000000000000000000000000000000000000000000000000000000000000000000000000000000000000000000000000000000000000000",
      "type": "0x2",
      "transactionHash": "0x86984c135f9b229f31cce117ec633532d9b2db550b0ac58328342149af5ace3b",
      "transactionIndex": "0x2",
      "blockHash": "0x2079568d517b9b5fd6466f67b7f0309263aa52798664bfcda4bd9845d79b37fa",
      "blockNumber": "0x242ceea",
      "gasUsed": "0x6e73",
      "effectiveGasPrice": "0x47868c01",
      "from": "0x81c9a3b742e42e4513daed893108f17e3430bf84",
      "to": "0xaf32e1287cc1d80635e6fd39e969e79f5d519e16",
      "contractAddress": null
    },
    {
      "status": "0x1",
      "cumulativeGasUsed": "0x2bfaf",
      "logs": [],
      "logsBloom": "0x00000000000000000000000000000000000000000000000000000000000000000000000000000000000000000000000000000000000000000000000000000000000000000000000000000000000000000000000000000000000000000000000000000000000000000000000000000000000000000000000000000000000000000000000000000000000000000000000000000000000000000000000000000000000000000000000000000000000000000000000000000000000000000000000000000000000000000000000000000000000000000000000000000000000000000000000000000000000000000000000000000000000000000000000000000000",
      "type": "0x2",
      "transactionHash": "0x9a3aad26cb5ed32484e807a3f82b576311e85f1b50882c8068758421c41c1823",
      "transactionIndex": "0x3",
      "blockHash": "0x2079568d517b9b5fd6466f67b7f0309263aa52798664bfcda4bd9845d79b37fa",
      "blockNumber": "0x242ceea",
      "gasUsed": "0x8e7e",
      "effectiveGasPrice": "0x47868c01",
      "from": "0x81c9a3b742e42e4513daed893108f17e3430bf84",
      "to": "0xaf32e1287cc1d80635e6fd39e969e79f5d519e16",
      "contractAddress": null
    },
    {
      "status": "0x1",
      "cumulativeGasUsed": "0x32ed6",
      "logs": [],
      "logsBloom": "0x00000000000000000000000000000000000000000000000000000000000000000000000000000000000000000000000000000000000000000000000000000000000000000000000000000000000000000000000000000000000000000000000000000000000000000000000000000000000000000000000000000000000000000000000000000000000000000000000000000000000000000000000000000000000000000000000000000000000000000000000000000000000000000000000000000000000000000000000000000000000000000000000000000000000000000000000000000000000000000000000000000000000000000000000000000000",
      "type": "0x2",
      "transactionHash": "0x997bab65a6a752004880778ae1fd235ef4d4c7f6dcdc6387bd71b3184fc8c7a6",
      "transactionIndex": "0x4",
      "blockHash": "0x2079568d517b9b5fd6466f67b7f0309263aa52798664bfcda4bd9845d79b37fa",
      "blockNumber": "0x242ceea",
      "gasUsed": "0x6f27",
      "effectiveGasPrice": "0x47868c01",
      "from": "0x81c9a3b742e42e4513daed893108f17e3430bf84",
      "to": "0xaf32e1287cc1d80635e6fd39e969e79f5d519e16",
      "contractAddress": null
    },
    {
      "status": "0x1",
      "cumulativeGasUsed": "0x39b1a",
      "logs": [],
      "logsBloom": "0x00000000000000000000000000000000000000000000000000000000000000000000000000000000000000000000000000000000000000000000000000000000000000000000000000000000000000000000000000000000000000000000000000000000000000000000000000000000000000000000000000000000000000000000000000000000000000000000000000000000000000000000000000000000000000000000000000000000000000000000000000000000000000000000000000000000000000000000000000000000000000000000000000000000000000000000000000000000000000000000000000000000000000000000000000000000",
      "type": "0x2",
      "transactionHash": "0x3af229f211609599c617c90759f43b597f4023011363ad863e79ec8d7de84bfc",
      "transactionIndex": "0x5",
      "blockHash": "0x2079568d517b9b5fd6466f67b7f0309263aa52798664bfcda4bd9845d79b37fa",
      "blockNumber": "0x242ceea",
      "gasUsed": "0x6c44",
      "effectiveGasPrice": "0x47868c01",
      "from": "0x81c9a3b742e42e4513daed893108f17e3430bf84",
      "to": "0xaf32e1287cc1d80635e6fd39e969e79f5d519e16",
      "contractAddress": null
    },
    {
      "status": "0x1",
      "cumulativeGasUsed": "0x61d87",
      "logs": [],
      "logsBloom": "0x00000000000000000000000000000000000000000000000000000000000000000000000000000000000000000000000000000000000000000000000000000000000000000000000000000000000000000000000000000000000000000000000000000000000000000000000000000000000000000000000000000000000000000000000000000000000000000000000000000000000000000000000000000000000000000000000000000000000000000000000000000000000000000000000000000000000000000000000000000000000000000000000000000000000000000000000000000000000000000000000000000000000000000000000000000000",
      "type": "0x2",
      "transactionHash": "0x2f01168dfb63f20f274408d32f36c75d221d41fc0487516b3b6f798a7b5417a5",
      "transactionIndex": "0x6",
      "blockHash": "0x2079568d517b9b5fd6466f67b7f0309263aa52798664bfcda4bd9845d79b37fa",
      "blockNumber": "0x242ceea",
      "gasUsed": "0x2826d",
      "effectiveGasPrice": "0x47868c01",
      "from": "0x81c9a3b742e42e4513daed893108f17e3430bf84",
      "to": null,
      "contractAddress": "0x8b58fd18c729e3853b26971d678c569002cb8ef6"
    },
    {
      "status": "0x1",
      "cumulativeGasUsed": "0x71570",
      "logs": [],
      "logsBloom": "0x00000000000000000000000000000000000000000000000000000000000000000000000000000000000000000000000000000000000000000000000000000000000000000000000000000000000000000000000000000000000000000000000000000000000000000000000000000000000000000000000000000000000000000000000000000000000000000000000000000000000000000000000000000000000000000000000000000000000000000000000000000000000000000000000000000000000000000000000000000000000000000000000000000000000000000000000000000000000000000000000000000000000000000000000000000000",
      "type": "0x2",
      "transactionHash": "0x765200d03533d73f91dc36eb01822fe9879812251eb793686b20088e5d2023a7",
      "transactionIndex": "0x7",
      "blockHash": "0x2079568d517b9b5fd6466f67b7f0309263aa52798664bfcda4bd9845d79b37fa",
      "blockNumber": "0x242ceea",
      "gasUsed": "0xf7e9",
      "effectiveGasPrice": "0x47868c01",
      "from": "0x81c9a3b742e42e4513daed893108f17e3430bf84",
      "to": "0x8b58fd18c729e3853b26971d678c569002cb8ef6",
      "contractAddress": null
    }
  ],
  "libraries": [],
  "pending": [],
  "returns": {},
  "timestamp": 1738861223,
  "chain": 43113,
  "commit": "42e5aad"
}