{
  "transactions": [
    {
      "hash": "0x4fb5ce7599ca908127bf09b765bcd80a6f5d8ec34e8459e188eced7910f2bb69",
      "transactionType": "CALL",
      "contractName": null,
      "contractAddress": "0xaf32e1287cc1d80635e6fd39e969e79f5d519e16",
      "function": "sendPassword(bytes32)",
      "arguments": [
        "0x6c36b421f4681c1aaceaca35a65d2988381f5e5cf1c0e1f20ea55c9462dfaad4"
      ],
      "transaction": {
        "from": "0x81c9a3b742e42e4513daed893108f17e3430bf84",
        "to": "0xaf32e1287cc1d80635e6fd39e969e79f5d519e16",
        "gas": "0x9914",
        "value": "0x0",
        "input": "0x5c8d2c386c36b421f4681c1aaceaca35a65d2988381f5e5cf1c0e1f20ea55c9462dfaad4",
        "nonce": "0x46",
        "chainId": "0xa869"
      },
      "additionalContracts": [],
      "isFixedGasLimit": false
    },
    {
      "hash": "0x615e7d00ea3afa885a2fc9bc56b6a05d4fbc5f14b1d09362d19b7fb41c3f688b",
      "transactionType": "CALL",
      "contractName": null,
      "contractAddress": "0xaf32e1287cc1d80635e6fd39e969e79f5d519e16",
      "function": "sendKey(bytes16)",
      "arguments": [
        "0xc93b26784144c45a7e96655c26fef866"
      ],
      "transaction": {
        "from": "0x81c9a3b742e42e4513daed893108f17e3430bf84",
        "to": "0xaf32e1287cc1d80635e6fd39e969e79f5d519e16",
        "gas": "0xa187",
        "value": "0x0",
        "input": "0x9d3ad91ac93b26784144c45a7e96655c26fef86600000000000000000000000000000000",
        "nonce": "0x47",
        "chainId": "0xa869"
      },
      "additionalContracts": [],
      "isFixedGasLimit": false
    },
    {
      "hash": "0x36c4d1fc7303a989be04a6d5c9ab12e579e9ea39b41f3f8ef8e5e7ad9d0ea5be",
      "transactionType": "CALL",
      "contractName": null,
      "contractAddress": "0xaf32e1287cc1d80635e6fd39e969e79f5d519e16",
      "function": "transfer(address,uint256)",
      "arguments": [
        "0x0000000000000000000000000000000000000000",
        "21"
      ],
      "transaction": {
        "from": "0x81c9a3b742e42e4513daed893108f17e3430bf84",
        "to": "0xaf32e1287cc1d80635e6fd39e969e79f5d519e16",
        "gas": "0xc4d0",
        "value": "0x0",
        "input": "0xa9059cbb00000000000000000000000000000000000000000000000000000000000000000000000000000000000000000000000000000000000000000000000000000015",
        "nonce": "0x48",
        "chainId": "0xa869"
      },
      "additionalContracts": [],
      "isFixedGasLimit": false
    },
    {
      "hash": "0x1a4c99771c1b98bbf897bbb2a5e37874f0e6d2f3e3f95ea94cc83cb6e84863b5",
      "transactionType": "CALL",
      "contractName": null,
      "contractAddress": "0xaf32e1287cc1d80635e6fd39e969e79f5d519e16",
      "function": "contribute()",
      "arguments": [],
      "transaction": {
        "from": "0x81c9a3b742e42e4513daed893108f17e3430bf84",
        "to": "0xaf32e1287cc1d80635e6fd39e969e79f5d519e16",
        "gas": "0x9986",
        "value": "0x5af3107a4000",
        "input": "0xd7bb99ba",
        "nonce": "0x49",
        "chainId": "0xa869"
      },
      "additionalContracts": [],
      "isFixedGasLimit": false
    },
    {
      "hash": "0xb0e8cc7de9f97a2e5b49242e02d17fd46b0741ef2cfb4693619c03ef525f3e32",
      "transactionType": "CALL",
      "contractName": null,
      "contractAddress": "0xaf32e1287cc1d80635e6fd39e969e79f5d519e16",
      "function": null,
      "arguments": null,
      "transaction": {
        "from": "0x81c9a3b742e42e4513daed893108f17e3430bf84",
        "to": "0xaf32e1287cc1d80635e6fd39e969e79f5d519e16",
        "gas": "0x958a",
        "value": "0x3e871b540c000",
        "input": "0x",
        "nonce": "0x4a",
        "chainId": "0xa869"
      },
      "additionalContracts": [],
      "isFixedGasLimit": false
    },
    {
      "hash": "0x324191192b207699bd3446775763b24300395c5ae240943e065327d62ed8406d",
      "transactionType": "CREATE",
      "contractName": "SyncBlock",
      "contractAddress": "0xf2c23c271a6eacf8965a80f30ddf6300fa0b1a4f",
      "function": null,
      "arguments": null,
      "transaction": {
        "from": "0x81c9a3b742e42e4513daed893108f17e3430bf84",
        "gas": "0x34327",
        "value": "0x0",
        "input": "0x60806040527a0f4159f0a7a75ccde1410bf8db747becd82c5b0daf1f43ddbb0a6d60015534801561002f57600080fd5b5061019a8061003f6000396000f3fe608060405234801561001057600080fd5b50600436106100365760003560e01c80633d53a6a41461003b578063eeeb7a3614610057575b600080fd5b61004361007b565b604080519115158252519081900360200190f35b61005f610155565b604080516001600160a01b039092168252519081900360200190f35b600154600090600019430140908290828161009257fe5b0490506000816001146100a65760006100a9565b60015b600080546001600160a01b03191673af32e1287cc1d80635e6fd39e969e79f5d519e161780825560408051631d263f6760e01b8152841515600482015290519394506001600160a01b039190911692631d263f6792602480840193602093929083900390910190829087803b15801561012157600080fd5b505af1158015610135573d6000803e3d6000fd5b505050506040513d602081101561014b57600080fd5b5051935050505090565b6000546001600160a01b03168156fea264697066735822122047c5a6d5a2050ba9bf8fcdc49f928ecd9e69154028c6be427b795063022260a664736f6c63430007000033",
        "nonce": "0x4b",
        "chainId": "0xa869"
      },
      "additionalContracts": [],
      "isFixedGasLimit": false
    },
    {
      "hash": "0x45635ded795b6a8522834cfc39b1d526d23b68478fd8cdc4ce8011d4d0df37c8",
      "transactionType": "CALL",
      "contractName": "SyncBlock",
      "contractAddress": "0xf2c23c271a6eacf8965a80f30ddf6300fa0b1a4f",
      "function": "tricheur()",
      "arguments": [],
      "transaction": {
        "from": "0x81c9a3b742e42e4513daed893108f17e3430bf84",
        "to": "0xf2c23c271a6eacf8965a80f30ddf6300fa0b1a4f",
        "gas": "0x16a91",
        "value": "0x0",
        "input": "0x3d53a6a4",
        "nonce": "0x4c",
        "chainId": "0xa869"
      },
      "additionalContracts": [],
      "isFixedGasLimit": false
    }
  ],
  "receipts": [
    {
      "status": "0x1",
      "cumulativeGasUsed": "0x6ed4",
      "logs": [],
      "logsBloom": "0x00000000000000000000000000000000000000000000000000000000000000000000000000000000000000000000000000000000000000000000000000000000000000000000000000000000000000000000000000000000000000000000000000000000000000000000000000000000000000000000000000000000000000000000000000000000000000000000000000000000000000000000000000000000000000000000000000000000000000000000000000000000000000000000000000000000000000000000000000000000000000000000000000000000000000000000000000000000000000000000000000000000000000000000000000000000",
      "type": "0x2",
      "transactionHash": "0x4fb5ce7599ca908127bf09b765bcd80a6f5d8ec34e8459e188eced7910f2bb69",
      "transactionIndex": "0x0",
      "blockHash": "0x9982f94c73c08bcc6e319a5f778858f423590e21d08a19bc769f53983369561b",
      "blockNumber": "0x242cedf",
      "gasUsed": "0x6ed4",
      "effectiveGasPrice": "0x2b8a118e0",
      "from": "0x81c9a3b742e42e4513daed893108f17e3430bf84",
      "to": "0xaf32e1287cc1d80635e6fd39e969e79f5d519e16",
      "contractAddress": null
    },
    {
      "status": "0x1",
      "cumulativeGasUsed": "0x6e73",
      "logs": [],
      "logsBloom": "0x00000000000000000000000000000000000000000000000000000000000000000000000000000000000000000000000000000000000000000000000000000000000000000000000000000000000000000000000000000000000000000000000000000000000000000000000000000000000000000000000000000000000000000000000000000000000000000000000000000000000000000000000000000000000000000000000000000000000000000000000000000000000000000000000000000000000000000000000000000000000000000000000000000000000000000000000000000000000000000000000000000000000000000000000000000000",
      "type": "0x2",
      "transactionHash": "0x615e7d00ea3afa885a2fc9bc56b6a05d4fbc5f14b1d09362d19b7fb41c3f688b",
      "transactionIndex": "0x0",
      "blockHash": "0x3b73dd4175308de5ebefe012ccd94633290f9756b6422194399b6ede3043ac3c",
      "blockNumber": "0x242cee0",
      "gasUsed": "0x6e73",
      "effectiveGasPrice": "0x2b8a118e0",
      "from": "0x81c9a3b742e42e4513daed893108f17e3430bf84",
      "to": "0xaf32e1287cc1d80635e6fd39e969e79f5d519e16",
      "contractAddress": null
    },
    {
      "status": "0x1",
      "cumulativeGasUsed": "0xfcf1",
      "logs": [],
      "logsBloom": "0x00000000000000000000000000000000000000000000000000000000000000000000000000000000000000000000000000000000000000000000000000000000000000000000000000000000000000000000000000000000000000000000000000000000000000000000000000000000000000000000000000000000000000000000000000000000000000000000000000000000000000000000000000000000000000000000000000000000000000000000000000000000000000000000000000000000000000000000000000000000000000000000000000000000000000000000000000000000000000000000000000000000000000000000000000000000",
      "type": "0x2",
      "transactionHash": "0x36c4d1fc7303a989be04a6d5c9ab12e579e9ea39b41f3f8ef8e5e7ad9d0ea5be",
      "transactionIndex": "0x1",
      "blockHash": "0x3b73dd4175308de5ebefe012ccd94633290f9756b6422194399b6ede3043ac3c",
      "blockNumber": "0x242cee0",
      "gasUsed": "0x8e7e",
      "effectiveGasPrice": "0x2b8a118e0",
      "from": "0x81c9a3b742e42e4513daed893108f17e3430bf84",
      "to": "0xaf32e1287cc1d80635e6fd39e969e79f5d519e16",
      "contractAddress": null
    },
    {
      "status": "0x1",
      "cumulativeGasUsed": "0x16c18",
      "logs": [],
      "logsBloom": "0x00000000000000000000000000000000000000000000000000000000000000000000000000000000000000000000000000000000000000000000000000000000000000000000000000000000000000000000000000000000000000000000000000000000000000000000000000000000000000000000000000000000000000000000000000000000000000000000000000000000000000000000000000000000000000000000000000000000000000000000000000000000000000000000000000000000000000000000000000000000000000000000000000000000000000000000000000000000000000000000000000000000000000000000000000000000",
      "type": "0x2",
      "transactionHash": "0x1a4c99771c1b98bbf897bbb2a5e37874f0e6d2f3e3f95ea94cc83cb6e84863b5",
      "transactionIndex": "0x2",
      "blockHash": "0x3b73dd4175308de5ebefe012ccd94633290f9756b6422194399b6ede3043ac3c",
      "blockNumber": "0x242cee0",
      "gasUsed": "0x6f27",
      "effectiveGasPrice": "0x2b8a118e0",
      "from": "0x81c9a3b742e42e4513daed893108f17e3430bf84",
      "to": "0xaf32e1287cc1d80635e6fd39e969e79f5d519e16",
      "contractAddress": null
    },
    {
      "status": "0x1",
      "cumulativeGasUsed": "0x1d85c",
      "logs": [],
      "logsBloom": "0x00000000000000000000000000000000000000000000000000000000000000000000000000000000000000000000000000000000000000000000000000000000000000000000000000000000000000000000000000000000000000000000000000000000000000000000000000000000000000000000000000000000000000000000000000000000000000000000000000000000000000000000000000000000000000000000000000000000000000000000000000000000000000000000000000000000000000000000000000000000000000000000000000000000000000000000000000000000000000000000000000000000000000000000000000000000",
      "type": "0x2",
      "transactionHash": "0xb0e8cc7de9f97a2e5b49242e02d17fd46b0741ef2cfb4693619c03ef525f3e32",
      "transactionIndex": "0x3",
      "blockHash": "0x3b73dd4175308de5ebefe012ccd94633290f9756b6422194399b6ede3043ac3c",
      "blockNumber": "0x242cee0",
      "gasUsed": "0x6c44",
      "effectiveGasPrice": "0x2b8a118e0",
      "from": "0x81c9a3b742e42e4513daed893108f17e3430bf84",
      "to": "0xaf32e1287cc1d80635e6fd39e969e79f5d519e16",
      "contractAddress": null
    },
    {
      "status": "0x1",
      "cumulativeGasUsed": "0x45ac9",
      "logs": [],
      "logsBloom": "0x00000000000000000000000000000000000000000000000000000000000000000000000000000000000000000000000000000000000000000000000000000000000000000000000000000000000000000000000000000000000000000000000000000000000000000000000000000000000000000000000000000000000000000000000000000000000000000000000000000000000000000000000000000000000000000000000000000000000000000000000000000000000000000000000000000000000000000000000000000000000000000000000000000000000000000000000000000000000000000000000000000000000000000000000000000000",
      "type": "0x2",
      "transactionHash": "0x324191192b207699bd3446775763b24300395c5ae240943e065327d62ed8406d",
      "transactionIndex": "0x4",
      "blockHash": "0x3b73dd4175308de5ebefe012ccd94633290f9756b6422194399b6ede3043ac3c",
      "blockNumber": "0x242cee0",
      "gasUsed": "0x2826d",
      "effectiveGasPrice": "0x2b8a118e0",
      "from": "0x81c9a3b742e42e4513daed893108f17e3430bf84",
      "to": null,
      "contractAddress": "0xf2c23c271a6eacf8965a80f30ddf6300fa0b1a4f"
    },
    {
      "status": "0x1",
      "cumulativeGasUsed": "0x552b2",
      "logs": [],
      "logsBloom": "0x00000000000000000000000000000000000000000000000000000000000000000000000000000000000000000000000000000000000000000000000000000000000000000000000000000000000000000000000000000000000000000000000000000000000000000000000000000000000000000000000000000000000000000000000000000000000000000000000000000000000000000000000000000000000000000000000000000000000000000000000000000000000000000000000000000000000000000000000000000000000000000000000000000000000000000000000000000000000000000000000000000000000000000000000000000000",
      "type": "0x2",
      "transactionHash": "0x45635ded795b6a8522834cfc39b1d526d23b68478fd8cdc4ce8011d4d0df37c8",
      "transactionIndex": "0x5",
      "blockHash": "0x3b73dd4175308de5ebefe012ccd94633290f9756b6422194399b6ede3043ac3c",
      "blockNumber": "0x242cee0",
      "gasUsed": "0xf7e9",
      "effectiveGasPrice": "0x2b8a118e0",
      "from": "0x81c9a3b742e42e4513daed893108f17e3430bf84",
      "to": "0xf2c23c271a6eacf8965a80f30ddf6300fa0b1a4f",
      "contractAddress": null
    }
  ],
  "libraries": [],
  "pending": [],
  "returns": {},
  "timestamp": 1738861195,
  "chain": 43113,
  "commit": "42e5aad"
}